{
  "contractName": "KriptoBagis",
  "abi": [
    {
      "inputs": [],
      "stateMutability": "nonpayable",
      "type": "constructor"
    },
    {
      "anonymous": false,
      "inputs": [
        {
          "indexed": true,
          "internalType": "address",
          "name": "_managerAddress",
          "type": "address"
        }
      ],
      "name": "AddManager",
      "type": "event"
    },
    {
      "anonymous": false,
      "inputs": [
        {
          "indexed": true,
          "internalType": "address",
          "name": "_manager",
          "type": "address"
        },
        {
          "indexed": true,
          "internalType": "address",
          "name": "_validatedAddress",
          "type": "address"
        }
      ],
      "name": "AddressValidation",
      "type": "event"
    },
    {
      "anonymous": false,
      "inputs": [
        {
          "indexed": true,
          "internalType": "address",
          "name": "_donor",
          "type": "address"
        },
        {
          "indexed": false,
          "internalType": "uint256",
          "name": "_value",
          "type": "uint256"
        },
        {
          "indexed": true,
          "internalType": "address",
          "name": "_destinationAddress",
          "type": "address"
        }
      ],
      "name": "Donation",
      "type": "event"
    },
    {
      "anonymous": false,
      "inputs": [
        {
          "components": [
            {
              "internalType": "address payable",
              "name": "organizationAddress",
              "type": "address"
            },
            {
              "internalType": "string",
              "name": "organizationName",
              "type": "string"
            },
            {
              "internalType": "enum KriptoBagis.OrganizationType[]",
              "name": "organizationTypes",
              "type": "uint8[]"
            },
            {
              "internalType": "bool",
              "name": "isValidated",
              "type": "bool"
            }
          ],
          "indexed": true,
          "internalType": "struct KriptoBagis.Organization",
          "name": "_organization",
          "type": "tuple"
        }
      ],
      "name": "OrganizationAdded",
      "type": "event"
    },
    {
      "inputs": [
        {
          "internalType": "string",
          "name": "organizationName",
          "type": "string"
        },
        {
          "internalType": "enum KriptoBagis.OrganizationType[]",
          "name": "organizationTypes",
          "type": "uint8[]"
        }
      ],
      "name": "addNewOrganization",
      "outputs": [],
      "stateMutability": "nonpayable",
      "type": "function"
    },
    {
      "inputs": [],
      "name": "getAddresses",
      "outputs": [
        {
          "internalType": "address payable[]",
          "name": "",
          "type": "address[]"
        }
      ],
      "stateMutability": "view",
      "type": "function"
    },
    {
      "inputs": [],
      "name": "getAddress",
      "outputs": [
        {
          "components": [
            {
              "internalType": "address payable",
              "name": "organizationAddress",
              "type": "address"
            },
            {
              "internalType": "string",
              "name": "organizationName",
              "type": "string"
            },
            {
              "internalType": "enum KriptoBagis.OrganizationType[]",
              "name": "organizationTypes",
              "type": "uint8[]"
            },
            {
              "internalType": "bool",
              "name": "isValidated",
              "type": "bool"
            }
          ],
          "internalType": "struct KriptoBagis.Organization",
          "name": "",
          "type": "tuple"
        }
      ],
      "stateMutability": "view",
      "type": "function"
    },
    {
      "inputs": [
        {
          "internalType": "address payable",
          "name": "charityAddress",
          "type": "address"
        }
      ],
      "name": "getAddressInfos",
      "outputs": [
        {
          "internalType": "address payable",
          "name": "",
          "type": "address"
        },
        {
          "internalType": "string",
          "name": "",
          "type": "string"
        },
        {
          "internalType": "enum KriptoBagis.OrganizationType[]",
          "name": "",
          "type": "uint8[]"
        },
        {
          "internalType": "bool",
          "name": "",
          "type": "bool"
        }
      ],
      "stateMutability": "view",
      "type": "function"
    },
    {
      "inputs": [
        {
          "internalType": "address payable",
          "name": "destinationAddress",
          "type": "address"
        },
        {
          "internalType": "address payable[]",
          "name": "otherAddresses",
          "type": "address[]"
        },
        {
          "internalType": "uint256",
          "name": "mainPercentage",
          "type": "uint256"
        }
      ],
      "name": "deposit",
      "outputs": [],
      "stateMutability": "payable",
      "type": "function"
    },
    {
      "inputs": [
        {
          "internalType": "address payable",
          "name": "destinationAddress",
          "type": "address"
        },
        {
          "internalType": "uint256",
          "name": "mainPercentage",
          "type": "uint256"
        }
      ],
      "name": "depositDirect",
      "outputs": [],
      "stateMutability": "payable",
      "type": "function"
    },
    {
      "inputs": [
        {
          "internalType": "address payable",
          "name": "validatingAddress",
          "type": "address"
        }
      ],
      "name": "validateCharityAddress",
      "outputs": [],
      "stateMutability": "nonpayable",
      "type": "function"
    },
    {
      "inputs": [
        {
          "internalType": "address",
          "name": "managerAddress",
          "type": "address"
        }
      ],
      "name": "addManagerAddress",
      "outputs": [],
      "stateMutability": "nonpayable",
      "type": "function"
    },
    {
      "inputs": [],
      "name": "getTotalDonationsAmount",
      "outputs": [
        {
          "internalType": "uint256",
          "name": "",
          "type": "uint256"
        }
      ],
      "stateMutability": "view",
      "type": "function"
    },
    {
      "inputs": [],
      "name": "getHighestDonation",
      "outputs": [
        {
          "internalType": "uint256",
          "name": "",
          "type": "uint256"
        },
        {
          "internalType": "address payable",
          "name": "",
          "type": "address"
        }
      ],
      "stateMutability": "view",
      "type": "function"
    },
    {
      "inputs": [],
      "name": "destroy",
      "outputs": [],
      "stateMutability": "nonpayable",
      "type": "function"
    }
  ],
  "bytecode": "0x608060405234801561001057600080fd5b50336000806101000a81548173ffffffffffffffffffffffffffffffffffffffff021916908373ffffffffffffffffffffffffffffffffffffffff16021790555060006004819055506000600581905550613ac3806100706000396000f3fe60806040526004361061009c5760003560e01c806341abfdc01161006457806341abfdc01461016557806383197ef0146101815780638e83a51314610198578063a39fac12146101c1578063de56a296146101ec578063efb349af1461022c5761009c565b8063129009b8146100a1578063141b8809146100ca57806329b0f4f2146100f557806333f075de1461011e57806338cc48311461013a575b600080fd5b3480156100ad57600080fd5b506100c860048036038101906100c39190611a88565b610258565b005b3480156100d657600080fd5b506100df610465565b6040516100ec9190611ace565b60405180910390f35b34801561010157600080fd5b5061011c60048036038101906101179190611d1c565b61046f565b005b61013860048036038101906101339190611dfe565b610756565b005b34801561014657600080fd5b5061014f610aa3565b60405161015c9190612080565b60405180910390f35b61017f600480360381019061017a9190612165565b610c8a565b005b34801561018d57600080fd5b506101966111ab565b005b3480156101a457600080fd5b506101bf60048036038101906101ba91906121d4565b611272565b005b3480156101cd57600080fd5b506101d6611532565b6040516101e391906122b0565b60405180910390f35b3480156101f857600080fd5b50610213600480360381019061020e91906121d4565b6115c0565b60405161022394939291906123a9565b60405180910390f35b34801561023857600080fd5b506102416117be565b60405161024f9291906123fc565b60405180910390f35b60008054906101000a900473ffffffffffffffffffffffffffffffffffffffff1673ffffffffffffffffffffffffffffffffffffffff163373ffffffffffffffffffffffffffffffffffffffff16146102e6576040517f08c379a00000000000000000000000000000000000000000000000000000000081526004016102dd906124bd565b60405180910390fd5b600160003373ffffffffffffffffffffffffffffffffffffffff1673ffffffffffffffffffffffffffffffffffffffff16815260200190815260200160002060009054906101000a900460ff1680610389575060008054906101000a900473ffffffffffffffffffffffffffffffffffffffff1673ffffffffffffffffffffffffffffffffffffffff163373ffffffffffffffffffffffffffffffffffffffff16145b6103c8576040517f08c379a00000000000000000000000000000000000000000000000000000000081526004016103bf9061254f565b60405180910390fd5b60018060008373ffffffffffffffffffffffffffffffffffffffff1673ffffffffffffffffffffffffffffffffffffffff16815260200190815260200160002060006101000a81548160ff0219169083151502179055508073ffffffffffffffffffffffffffffffffffffffff167f3630096a7f9a158ab9fae41e86bfe31fd2202585a26a9668242672566dae028d60405160405180910390a250565b6000600454905090565b3360006001905060005b60038054905081101561050f578273ffffffffffffffffffffffffffffffffffffffff16600382815481106104b1576104b061256f565b5b9060005260206000200160009054906101000a900473ffffffffffffffffffffffffffffffffffffffff1673ffffffffffffffffffffffffffffffffffffffff16036104fc57600091505b8080610507906125cd565b915050610479565b5080610550576040517f08c379a000000000000000000000000000000000000000000000000000000000815260040161054790612687565b60405180910390fd5b60405180608001604052803373ffffffffffffffffffffffffffffffffffffffff16815260200185815260200184815260200160001515815250600260003373ffffffffffffffffffffffffffffffffffffffff1673ffffffffffffffffffffffffffffffffffffffff16815260200190815260200160002060008201518160000160006101000a81548173ffffffffffffffffffffffffffffffffffffffff021916908373ffffffffffffffffffffffffffffffffffffffff160217905550602082015181600101908051906020019061062c92919061187d565b506040820151816002019080519060200190610649929190611903565b5060608201518160030160006101000a81548160ff0219169083151502179055509050506003339080600181540180825580915050600190039060005260206000200160009091909190916101000a81548173ffffffffffffffffffffffffffffffffffffffff021916908373ffffffffffffffffffffffffffffffffffffffff160217905550600260003373ffffffffffffffffffffffffffffffffffffffff1673ffffffffffffffffffffffffffffffffffffffff16815260200190815260200160002060405161071c9190613658565b60405180910390207f136ec7fc04dce4fb0c0699d543d7a95ca3c59a6e3eda6583b5ce2a02dd762af960405160405180910390a250505050565b818073ffffffffffffffffffffffffffffffffffffffff163373ffffffffffffffffffffffffffffffffffffffff16036107c5576040517f08c379a00000000000000000000000000000000000000000000000000000000081526004016107bc906136e1565b60405180910390fd5b60003411610808576040517f08c379a00000000000000000000000000000000000000000000000000000000081526004016107ff90613773565b60405180910390fd5b82600060038054905011610851576040517f08c379a000000000000000000000000000000000000000000000000000000000815260040161084890613805565b60405180910390fd5b6000805b6003805490508110156108eb578273ffffffffffffffffffffffffffffffffffffffff166003828154811061088d5761088c61256f565b5b9060005260206000200160009054906101000a900473ffffffffffffffffffffffffffffffffffffffff1673ffffffffffffffffffffffffffffffffffffffff16036108d857600191505b80806108e3906125cd565b915050610855565b508061092c576040517f08c379a000000000000000000000000000000000000000000000000000000000815260040161092390613897565b60405180910390fd5b8360008111801561093e575060648111155b61097d576040517f08c379a000000000000000000000000000000000000000000000000000000000815260040161097490613929565b60405180910390fd5b60003490508673ffffffffffffffffffffffffffffffffffffffff166108fc829081150290604051600060405180830381858888f193505050501580156109c8573d6000803e3d6000fd5b508673ffffffffffffffffffffffffffffffffffffffff163373ffffffffffffffffffffffffffffffffffffffff167fc0bceae83bc3bc42cc5b2ff5d9c6f6895bbb7b727b9a086a371689055789aabe83604051610a269190611ace565b60405180910390a38060046000828254610a409190613949565b92505081905550600554811115610a9a578060058190555033600660006101000a81548173ffffffffffffffffffffffffffffffffffffffff021916908373ffffffffffffffffffffffffffffffffffffffff1602179055505b50505050505050565b610aab6119b9565b600260003373ffffffffffffffffffffffffffffffffffffffff1673ffffffffffffffffffffffffffffffffffffffff1681526020019081526020016000206040518060800160405290816000820160009054906101000a900473ffffffffffffffffffffffffffffffffffffffff1673ffffffffffffffffffffffffffffffffffffffff1673ffffffffffffffffffffffffffffffffffffffff168152602001600182018054610b5b90612744565b80601f0160208091040260200160405190810160405280929190818152602001828054610b8790612744565b8015610bd45780601f10610ba957610100808354040283529160200191610bd4565b820191906000526020600020905b815481529060010190602001808311610bb757829003601f168201915b5050505050815260200160028201805480602002602001604051908101604052809291908181526020018280548015610c6157602002820191906000526020600020906000905b82829054906101000a900460ff166007811115610c3b57610c3a611f01565b5b81526020019060010190602082600001049283019260010382029150808411610c1b5790505b505050505081526020016003820160009054906101000a900460ff161515151581525050905090565b828073ffffffffffffffffffffffffffffffffffffffff163373ffffffffffffffffffffffffffffffffffffffff1603610cf9576040517f08c379a0000000000000000000000000000000000000000000000000000000008152600401610cf0906136e1565b60405180910390fd5b60003411610d3c576040517f08c379a0000000000000000000000000000000000000000000000000000000008152600401610d3390613773565b60405180910390fd5b83600060038054905011610d85576040517f08c379a0000000000000000000000000000000000000000000000000000000008152600401610d7c90613805565b60405180910390fd5b6000805b600380549050811015610e1f578273ffffffffffffffffffffffffffffffffffffffff1660038281548110610dc157610dc061256f565b5b9060005260206000200160009054906101000a900473ffffffffffffffffffffffffffffffffffffffff1673ffffffffffffffffffffffffffffffffffffffff1603610e0c57600191505b8080610e17906125cd565b915050610d89565b5080610e60576040517f08c379a0000000000000000000000000000000000000000000000000000000008152600401610e5790613897565b60405180910390fd5b846000805b600380549050811015610f355760005b8351811015610f2157838181518110610e9157610e9061256f565b5b602002602001015173ffffffffffffffffffffffffffffffffffffffff1660038381548110610ec357610ec261256f565b5b9060005260206000200160009054906101000a900473ffffffffffffffffffffffffffffffffffffffff1673ffffffffffffffffffffffffffffffffffffffff1603610f0e57600192505b8080610f19906125cd565b915050610e75565b508080610f2d906125cd565b915050610e65565b5080610f76576040517f08c379a0000000000000000000000000000000000000000000000000000000008152600401610f6d90613897565b60405180910390fd5b85600081118015610f88575060648111155b610fc7576040517f08c379a0000000000000000000000000000000000000000000000000000000008152600401610fbe90613929565b60405180910390fd5b600060648834610fd7919061399f565b610fe19190613a28565b905060008134610ff19190613a59565b905060008a51826110029190613a28565b905060005b8b51811015611084578b81815181106110235761102261256f565b5b602002602001015173ffffffffffffffffffffffffffffffffffffffff166108fc839081150290604051600060405180830381858888f19350505050158015611070573d6000803e3d6000fd5b50808061107c906125cd565b915050611007565b508b73ffffffffffffffffffffffffffffffffffffffff166108fc849081150290604051600060405180830381858888f193505050501580156110cb573d6000803e3d6000fd5b508b73ffffffffffffffffffffffffffffffffffffffff163373ffffffffffffffffffffffffffffffffffffffff167fc0bceae83bc3bc42cc5b2ff5d9c6f6895bbb7b727b9a086a371689055789aabe856040516111299190611ace565b60405180910390a382600460008282546111439190613949565b9250508190555060055483111561119d578260058190555033600660006101000a81548173ffffffffffffffffffffffffffffffffffffffff021916908373ffffffffffffffffffffffffffffffffffffffff1602179055505b505050505050505050505050565b60008054906101000a900473ffffffffffffffffffffffffffffffffffffffff1673ffffffffffffffffffffffffffffffffffffffff163373ffffffffffffffffffffffffffffffffffffffff1614611239576040517f08c379a0000000000000000000000000000000000000000000000000000000008152600401611230906124bd565b60405180910390fd5b60008054906101000a900473ffffffffffffffffffffffffffffffffffffffff1673ffffffffffffffffffffffffffffffffffffffff16ff5b600160003373ffffffffffffffffffffffffffffffffffffffff1673ffffffffffffffffffffffffffffffffffffffff16815260200190815260200160002060009054906101000a900460ff1680611315575060008054906101000a900473ffffffffffffffffffffffffffffffffffffffff1673ffffffffffffffffffffffffffffffffffffffff163373ffffffffffffffffffffffffffffffffffffffff16145b611354576040517f08c379a000000000000000000000000000000000000000000000000000000000815260040161134b9061254f565b60405180910390fd5b8060006003805490501161139d576040517f08c379a000000000000000000000000000000000000000000000000000000000815260040161139490613805565b60405180910390fd5b6000805b600380549050811015611437578273ffffffffffffffffffffffffffffffffffffffff16600382815481106113d9576113d861256f565b5b9060005260206000200160009054906101000a900473ffffffffffffffffffffffffffffffffffffffff1673ffffffffffffffffffffffffffffffffffffffff160361142457600191505b808061142f906125cd565b9150506113a1565b5080611478576040517f08c379a000000000000000000000000000000000000000000000000000000000815260040161146f90613897565b60405180910390fd5b6001600260008573ffffffffffffffffffffffffffffffffffffffff1673ffffffffffffffffffffffffffffffffffffffff16815260200190815260200160002060030160006101000a81548160ff0219169083151502179055508273ffffffffffffffffffffffffffffffffffffffff163373ffffffffffffffffffffffffffffffffffffffff167ff880befad2c8adef70e70928090f5097492cac381953be7c05fd142924a39ecd60405160405180910390a3505050565b606060038054806020026020016040519081016040528092919081815260200182805480156115b657602002820191906000526020600020905b8160009054906101000a900473ffffffffffffffffffffffffffffffffffffffff1673ffffffffffffffffffffffffffffffffffffffff168152602001906001019080831161156c575b5050505050905090565b6000606080600084600260008773ffffffffffffffffffffffffffffffffffffffff1673ffffffffffffffffffffffffffffffffffffffff168152602001908152602001600020600101600260008873ffffffffffffffffffffffffffffffffffffffff1673ffffffffffffffffffffffffffffffffffffffff168152602001908152602001600020600201600260008973ffffffffffffffffffffffffffffffffffffffff1673ffffffffffffffffffffffffffffffffffffffff16815260200190815260200160002060030160009054906101000a900460ff168280546116a890612744565b80601f01602080910402602001604051908101604052809291908181526020018280546116d490612744565b80156117215780601f106116f657610100808354040283529160200191611721565b820191906000526020600020905b81548152906001019060200180831161170457829003601f168201915b50505050509250818054806020026020016040519081016040528092919081815260200182805480156117a857602002820191906000526020600020906000905b82829054906101000a900460ff16600781111561178257611781611f01565b5b815260200190600101906020826000010492830192600103820291508084116117625790505b5050505050915093509350935093509193509193565b60008060008054906101000a900473ffffffffffffffffffffffffffffffffffffffff1673ffffffffffffffffffffffffffffffffffffffff163373ffffffffffffffffffffffffffffffffffffffff161461184f576040517f08c379a0000000000000000000000000000000000000000000000000000000008152600401611846906124bd565b60405180910390fd5b600554600660009054906101000a900473ffffffffffffffffffffffffffffffffffffffff16915091509091565b82805461188990612744565b90600052602060002090601f0160209004810192826118ab57600085556118f2565b82601f106118c457805160ff19168380011785556118f2565b828001600101855582156118f2579182015b828111156118f15782518255916020019190600101906118d6565b5b5090506118ff91906119f9565b5090565b82805482825590600052602060002090601f016020900481019282156119a85791602002820160005b8382111561197957835183826101000a81548160ff0219169083600781111561195857611957611f01565b5b0217905550926020019260010160208160000104928301926001030261192c565b80156119a65782816101000a81549060ff0219169055600101602081600001049283019260010302611979565b505b5090506119b591906119f9565b5090565b6040518060800160405280600073ffffffffffffffffffffffffffffffffffffffff16815260200160608152602001606081526020016000151581525090565b5b80821115611a125760008160009055506001016119fa565b5090565b6000604051905090565b600080fd5b600080fd5b600073ffffffffffffffffffffffffffffffffffffffff82169050919050565b6000611a5582611a2a565b9050919050565b611a6581611a4a565b8114611a7057600080fd5b50565b600081359050611a8281611a5c565b92915050565b600060208284031215611a9e57611a9d611a20565b5b6000611aac84828501611a73565b91505092915050565b6000819050919050565b611ac881611ab5565b82525050565b6000602082019050611ae36000830184611abf565b92915050565b600080fd5b600080fd5b6000601f19601f8301169050919050565b7f4e487b7100000000000000000000000000000000000000000000000000000000600052604160045260246000fd5b611b3c82611af3565b810181811067ffffffffffffffff82111715611b5b57611b5a611b04565b5b80604052505050565b6000611b6e611a16565b9050611b7a8282611b33565b919050565b600067ffffffffffffffff821115611b9a57611b99611b04565b5b611ba382611af3565b9050602081019050919050565b82818337600083830152505050565b6000611bd2611bcd84611b7f565b611b64565b905082815260208101848484011115611bee57611bed611aee565b5b611bf9848285611bb0565b509392505050565b600082601f830112611c1657611c15611ae9565b5b8135611c26848260208601611bbf565b91505092915050565b600067ffffffffffffffff821115611c4a57611c49611b04565b5b602082029050602081019050919050565b600080fd5b60088110611c6d57600080fd5b50565b600081359050611c7f81611c60565b92915050565b6000611c98611c9384611c2f565b611b64565b90508083825260208201905060208402830185811115611cbb57611cba611c5b565b5b835b81811015611ce45780611cd08882611c70565b845260208401935050602081019050611cbd565b5050509392505050565b600082601f830112611d0357611d02611ae9565b5b8135611d13848260208601611c85565b91505092915050565b60008060408385031215611d3357611d32611a20565b5b600083013567ffffffffffffffff811115611d5157611d50611a25565b5b611d5d85828601611c01565b925050602083013567ffffffffffffffff811115611d7e57611d7d611a25565b5b611d8a85828601611cee565b9150509250929050565b6000611d9f82611a2a565b9050919050565b611daf81611d94565b8114611dba57600080fd5b50565b600081359050611dcc81611da6565b92915050565b611ddb81611ab5565b8114611de657600080fd5b50565b600081359050611df881611dd2565b92915050565b60008060408385031215611e1557611e14611a20565b5b6000611e2385828601611dbd565b9250506020611e3485828601611de9565b9150509250929050565b611e4781611d94565b82525050565b600081519050919050565b600082825260208201905092915050565b60005b83811015611e87578082015181840152602081019050611e6c565b83811115611e96576000848401525b50505050565b6000611ea782611e4d565b611eb18185611e58565b9350611ec1818560208601611e69565b611eca81611af3565b840191505092915050565b600081519050919050565b600082825260208201905092915050565b6000819050602082019050919050565b7f4e487b7100000000000000000000000000000000000000000000000000000000600052602160045260246000fd5b60088110611f4157611f40611f01565b5b50565b6000819050611f5282611f30565b919050565b6000611f6282611f44565b9050919050565b611f7281611f57565b82525050565b6000611f848383611f69565b60208301905092915050565b6000602082019050919050565b6000611fa882611ed5565b611fb28185611ee0565b9350611fbd83611ef1565b8060005b83811015611fee578151611fd58882611f78565b9750611fe083611f90565b925050600181019050611fc1565b5085935050505092915050565b60008115159050919050565b61201081611ffb565b82525050565b600060808301600083015161202e6000860182611e3e565b50602083015184820360208601526120468282611e9c565b915050604083015184820360408601526120608282611f9d565b91505060608301516120756060860182612007565b508091505092915050565b6000602082019050818103600083015261209a8184612016565b905092915050565b600067ffffffffffffffff8211156120bd576120bc611b04565b5b602082029050602081019050919050565b60006120e16120dc846120a2565b611b64565b9050808382526020820190506020840283018581111561210457612103611c5b565b5b835b8181101561212d57806121198882611dbd565b845260208401935050602081019050612106565b5050509392505050565b600082601f83011261214c5761214b611ae9565b5b813561215c8482602086016120ce565b91505092915050565b60008060006060848603121561217e5761217d611a20565b5b600061218c86828701611dbd565b935050602084013567ffffffffffffffff8111156121ad576121ac611a25565b5b6121b986828701612137565b92505060406121ca86828701611de9565b9150509250925092565b6000602082840312156121ea576121e9611a20565b5b60006121f884828501611dbd565b91505092915050565b600081519050919050565b600082825260208201905092915050565b6000819050602082019050919050565b60006122398383611e3e565b60208301905092915050565b6000602082019050919050565b600061225d82612201565b612267818561220c565b93506122728361221d565b8060005b838110156122a357815161228a888261222d565b975061229583612245565b925050600181019050612276565b5085935050505092915050565b600060208201905081810360008301526122ca8184612252565b905092915050565b6122db81611d94565b82525050565b600082825260208201905092915050565b60006122fd82611e4d565b61230781856122e1565b9350612317818560208601611e69565b61232081611af3565b840191505092915050565b600082825260208201905092915050565b600061234782611ed5565b612351818561232b565b935061235c83611ef1565b8060005b8381101561238d5781516123748882611f78565b975061237f83611f90565b925050600181019050612360565b5085935050505092915050565b6123a381611ffb565b82525050565b60006080820190506123be60008301876122d2565b81810360208301526123d081866122f2565b905081810360408301526123e4818561233c565b90506123f3606083018461239a565b95945050505050565b60006040820190506124116000830185611abf565b61241e60208301846122d2565b9392505050565b7f4d6574686f6420617661696c61626c65206f6e6c7920746f2074686520746f2060008201527f74686520757365722074686174206465706c6f7965642074686520636f6e747260208201527f6163740000000000000000000000000000000000000000000000000000000000604082015250565b60006124a76043836122e1565b91506124b282612425565b606082019050919050565b600060208201905081810360008301526124d68161249a565b9050919050565b7f5468652041646472657373206973206e6f7420617574686f72697a6564206d6160008201527f6e61676572206164647265737300000000000000000000000000000000000000602082015250565b6000612539602d836122e1565b9150612544826124dd565b604082019050919050565b600060208201905081810360008301526125688161252c565b9050919050565b7f4e487b7100000000000000000000000000000000000000000000000000000000600052603260045260246000fd5b7f4e487b7100000000000000000000000000000000000000000000000000000000600052601160045260246000fd5b60006125d882611ab5565b91507fffffffffffffffffffffffffffffffffffffffffffffffffffffffffffffffff820361260a5761260961259e565b5b600182019050919050565b7f546865206164647265737320616464656420746f2074686520636f6e7472616360008201527f74206265666f7265210000000000000000000000000000000000000000000000602082015250565b60006126716029836122e1565b915061267c82612615565b604082019050919050565b600060208201905081810360008301526126a081612664565b9050919050565b60008160001c9050919050565b600073ffffffffffffffffffffffffffffffffffffffff82169050919050565b60006126e76126e2836126a7565b6126b4565b9050919050565b6126f781611d94565b82525050565b600061270983836126ee565b60208301905092915050565b7f4e487b7100000000000000000000000000000000000000000000000000000000600052602260045260246000fd5b6000600282049050600182168061275c57607f821691505b60208210810361276f5761276e612715565b5b50919050565b600081905092915050565b60008190508160005260206000209050919050565b600081546127a281612744565b6127ac8186612775565b945060018216600081146127c757600181146127d95761280c565b60ff198316865260208601935061280c565b6127e285612780565b60005b83811015612804578154818901526001820191506020810190506127e5565b808801955050505b50505092915050565b60006128218383612795565b905092915050565b600081549050919050565b600081905092915050565b60008190508160005260206000209050919050565b61285d81611f57565b82525050565b600060ff82169050919050565b600061288361287e836126a7565b612863565b9050919050565b60008160081c9050919050565b60006128aa6128a58361288a565b612863565b9050919050565b60008160101c9050919050565b60006128d16128cc836128b1565b612863565b9050919050565b60008160181c9050919050565b60006128f86128f3836128d8565b612863565b9050919050565b60008160201c9050919050565b600061291f61291a836128ff565b612863565b9050919050565b60008160281c9050919050565b600061294661294183612926565b612863565b9050919050565b60008160301c9050919050565b600061296d6129688361294d565b612863565b9050919050565b60008160381c9050919050565b600061299461298f83612974565b612863565b9050919050565b60008160401c9050919050565b60006129bb6129b68361299b565b612863565b9050919050565b60008160481c9050919050565b60006129e26129dd836129c2565b612863565b9050919050565b60008160501c9050919050565b6000612a09612a04836129e9565b612863565b9050919050565b60008160581c9050919050565b6000612a30612a2b83612a10565b612863565b9050919050565b60008160601c9050919050565b6000612a57612a5283612a37565b612863565b9050919050565b60008160681c9050919050565b6000612a7e612a7983612a5e565b612863565b9050919050565b60008160701c9050919050565b6000612aa5612aa083612a85565b612863565b9050919050565b60008160781c9050919050565b6000612acc612ac783612aac565b612863565b9050919050565b60008160801c9050919050565b6000612af3612aee83612ad3565b612863565b9050919050565b60008160881c9050919050565b6000612b1a612b1583612afa565b612863565b9050919050565b60008160901c9050919050565b6000612b41612b3c83612b21565b612863565b9050919050565b60008160981c9050919050565b6000612b68612b6383612b48565b612863565b9050919050565b60008160a01c9050919050565b6000612b8f612b8a83612b6f565b612863565b9050919050565b60008160a81c9050919050565b6000612bb6612bb183612b96565b612863565b9050919050565b60008160b01c9050919050565b6000612bdd612bd883612bbd565b612863565b9050919050565b60008160b81c9050919050565b6000612c04612bff83612be4565b612863565b9050919050565b60008160c01c9050919050565b6000612c2b612c2683612c0b565b612863565b9050919050565b60008160c81c9050919050565b6000612c52612c4d83612c32565b612863565b9050919050565b60008160d01c9050919050565b6000612c79612c7483612c59565b612863565b9050919050565b60008160d81c9050919050565b6000612ca0612c9b83612c80565b612863565b9050919050565b60008160e01c9050919050565b6000612cc7612cc283612ca7565b612863565b9050919050565b60008160e81c9050919050565b6000612cee612ce983612cce565b612863565b9050919050565b60008160f01c9050919050565b6000612d15612d1083612cf5565b612863565b9050919050565b60008160f81c9050919050565b6000612d3c612d3783612d1c565b612863565b9050919050565b6000612d4e82612829565b612d588185612834565b935083612d648461283f565b6000600115613091575b83600160200382011015613090578154612d9088612d8b83612870565b612854565b602088019750612da888612da383612897565b612854565b602088019750612dc088612dbb836128be565b612854565b602088019750612dd888612dd3836128e5565b612854565b602088019750612df088612deb8361290c565b612854565b602088019750612e0888612e0383612933565b612854565b602088019750612e2088612e1b8361295a565b612854565b602088019750612e3888612e3383612981565b612854565b602088019750612e5088612e4b836129a8565b612854565b602088019750612e6888612e63836129cf565b612854565b602088019750612e8088612e7b836129f6565b612854565b602088019750612e9888612e9383612a1d565b612854565b602088019750612eb088612eab83612a44565b612854565b602088019750612ec888612ec383612a6b565b612854565b602088019750612ee088612edb83612a92565b612854565b602088019750612ef888612ef383612ab9565b612854565b602088019750612f1088612f0b83612ae0565b612854565b602088019750612f2888612f2383612b07565b612854565b602088019750612f4088612f3b83612b2e565b612854565b602088019750612f5888612f5383612b55565b612854565b602088019750612f7088612f6b83612b7c565b612854565b602088019750612f8888612f8383612ba3565b612854565b602088019750612fa088612f9b83612bca565b612854565b602088019750612fb888612fb383612bf1565b612854565b602088019750612fd088612fcb83612c18565b612854565b602088019750612fe888612fe383612c3f565b612854565b60208801975061300088612ffb83612c66565b612854565b6020880197506130188861301383612c8d565b612854565b6020880197506130308861302b83612cb4565b612854565b6020880197506130488861304383612cdb565b612854565b6020880197506130608861305b83612d02565b612854565b6020880197506130788861307383612d29565b612854565b60208801975060018301925050602081019050612d6e565b5b60011561357c578154848210156130c1576130b4886130af83612870565b612854565b6020880197506001820191505b848210156130e8576130db886130d683612897565b612854565b6020880197506001820191505b8482101561310f57613102886130fd836128be565b612854565b6020880197506001820191505b848210156131365761312988613124836128e5565b612854565b6020880197506001820191505b8482101561315d576131508861314b8361290c565b612854565b6020880197506001820191505b84821015613184576131778861317283612933565b612854565b6020880197506001820191505b848210156131ab5761319e886131998361295a565b612854565b6020880197506001820191505b848210156131d2576131c5886131c083612981565b612854565b6020880197506001820191505b848210156131f9576131ec886131e7836129a8565b612854565b6020880197506001820191505b84821015613220576132138861320e836129cf565b612854565b6020880197506001820191505b848210156132475761323a88613235836129f6565b612854565b6020880197506001820191505b8482101561326e576132618861325c83612a1d565b612854565b6020880197506001820191505b84821015613295576132888861328383612a44565b612854565b6020880197506001820191505b848210156132bc576132af886132aa83612a6b565b612854565b6020880197506001820191505b848210156132e3576132d6886132d183612a92565b612854565b6020880197506001820191505b8482101561330a576132fd886132f883612ab9565b612854565b6020880197506001820191505b84821015613331576133248861331f83612ae0565b612854565b6020880197506001820191505b848210156133585761334b8861334683612b07565b612854565b6020880197506001820191505b8482101561337f576133728861336d83612b2e565b612854565b6020880197506001820191505b848210156133a6576133998861339483612b55565b612854565b6020880197506001820191505b848210156133cd576133c0886133bb83612b7c565b612854565b6020880197506001820191505b848210156133f4576133e7886133e283612ba3565b612854565b6020880197506001820191505b8482101561341b5761340e8861340983612bca565b612854565b6020880197506001820191505b84821015613442576134358861343083612bf1565b612854565b6020880197506001820191505b848210156134695761345c8861345783612c18565b612854565b6020880197506001820191505b84821015613490576134838861347e83612c3f565b612854565b6020880197506001820191505b848210156134b7576134aa886134a583612c66565b612854565b6020880197506001820191505b848210156134de576134d1886134cc83612c8d565b612854565b6020880197506001820191505b84821015613505576134f8886134f383612cb4565b612854565b6020880197506001820191505b8482101561352c5761351f8861351a83612cdb565b612854565b6020880197506001820191505b84821015613553576135468861354183612d02565b612854565b6020880197506001820191505b8482101561357a5761356d8861356883612d29565b612854565b6020880197506001820191505b505b8694505050505092915050565b60006135958383612d43565b905092915050565b600060ff82169050919050565b60006135bd6135b8836126a7565b61359d565b9050919050565b6135cd81611ffb565b82525050565b60006135df83836135c4565b60208301905092915050565b60008083016000808401549050613601816126d4565b61360b86826126fd565b9550506001840161361c8682612815565b9550506002840161362d8682613589565b95505060038401549050613640816135aa565b61364a86826135d3565b955050849250505092915050565b600061366482846135eb565b915081905092915050565b7f53656e64657220616e6420726563697069656e742063616e6e6f74206265207460008201527f68652073616d652e000000000000000000000000000000000000000000000000602082015250565b60006136cb6028836122e1565b91506136d68261366f565b604082019050919050565b600060208201905081810360008301526136fa816136be565b9050919050565b7f5472616e7366657220616d6f756e742068617320746f2062652067726561746560008201527f72207468616e20302e0000000000000000000000000000000000000000000000602082015250565b600061375d6029836122e1565b915061376882613701565b604082019050919050565b6000602082019050818103600083015261378c81613750565b9050919050565b7f43757272656e746c7920746865726520617265206e6f2061646472657373657360008201527f20696e2074686520636f6e747261637400000000000000000000000000000000602082015250565b60006137ef6030836122e1565b91506137fa82613793565b604082019050919050565b6000602082019050818103600083015261381e816137e2565b9050919050565b7f44657374696e6174696f6e2061646472657320646964206e6f7420666f756e6460008201527f20696e2074686520636f6e747261637400000000000000000000000000000000602082015250565b60006138816030836122e1565b915061388c82613825565b604082019050919050565b600060208201905081810360008301526138b081613874565b9050919050565b7f4d61696e2070657263656e74616765206d757374206265747765656e2030207460008201527f6f20313030000000000000000000000000000000000000000000000000000000602082015250565b60006139136025836122e1565b915061391e826138b7565b604082019050919050565b6000602082019050818103600083015261394281613906565b9050919050565b600061395482611ab5565b915061395f83611ab5565b9250827fffffffffffffffffffffffffffffffffffffffffffffffffffffffffffffffff038211156139945761399361259e565b5b828201905092915050565b60006139aa82611ab5565b91506139b583611ab5565b9250817fffffffffffffffffffffffffffffffffffffffffffffffffffffffffffffffff04831182151516156139ee576139ed61259e565b5b828202905092915050565b7f4e487b7100000000000000000000000000000000000000000000000000000000600052601260045260246000fd5b6000613a3382611ab5565b9150613a3e83611ab5565b925082613a4e57613a4d6139f9565b5b828204905092915050565b6000613a6482611ab5565b9150613a6f83611ab5565b925082821015613a8257613a8161259e565b5b82820390509291505056fea26469706673582212203e6991c758d707372138baedd4fa14024b52beb816f59296dd03ea2157a30ea364736f6c634300080d0033",
  "immutableReferences": {},
  "source": "// SPDX-License-Identifier: MIT\r\npragma solidity ^0.8.13;\r\n\r\ncontract KriptoBagis{\r\n    address owner;\r\n    mapping (address => bool) isManagerAddress;\r\n    mapping (address => Organization) charityAddressInfos;\r\n    address payable[] charityAddresses;\r\n    uint256 totalDonationsAmount;\r\n    uint256 highestDonation;\r\n    address highestDonor;\r\n\r\n    enum OrganizationType{\r\n        Education, //0\r\n        Health, //1\r\n        Environment, //2\r\n        Religion, //3\r\n        CivilSociety, //4\r\n        International, //5\r\n        BigInternational, //6\r\n        GovernmentOrganized //7\r\n    }\r\n\r\n    struct Organization{\r\n        address payable organizationAddress;\r\n        string organizationName;\r\n        OrganizationType[] organizationTypes;\r\n        bool isValidated;\r\n    }\r\n\r\n    event OrganizationAdded(Organization indexed _organization);\r\n\r\n    /// Ba yapan adresi ve ba miktarn blockchain'de kaydeder\r\n    event Donation(\r\n        address indexed _donor,\r\n        uint256 _value,\r\n        address indexed _destinationAddress\r\n    );\r\n\r\n    // Contract'ta tanmlanan manager'n onaylad adresin bilgisini blockchian'de kaydeder\r\n    event AddressValidation(\r\n        address indexed _manager,\r\n        address indexed _validatedAddress\r\n    );\r\n\r\n    //contracta eklenen manager address bilgisi\r\n    event AddManager(\r\n        address indexed _managerAddress\r\n    );\r\n\r\n    //function getOrganization(address payable memory address) public returns ()\r\n    constructor(){\r\n        owner = msg.sender; //Contract' deploylayan kiinin kaydnn tutulmas\r\n        totalDonationsAmount = 0;\r\n        highestDonation = 0;\r\n    }\r\n\r\n\r\n    function addNewOrganization(\r\n        string memory organizationName, \r\n        OrganizationType[] memory organizationTypes) \r\n        CheckNewCharityAddress(payable(msg.sender)) \r\n        public {\r\n        charityAddressInfos[msg.sender] = Organization({\r\n            organizationAddress: payable(msg.sender),\r\n            organizationName: organizationName,\r\n            organizationTypes: organizationTypes,\r\n            isValidated: false\r\n        });\r\n        charityAddresses.push(payable(msg.sender));\r\n        emit OrganizationAdded(charityAddressInfos[msg.sender]);\r\n    }\r\n\r\n    /// Btn ba adreslerini dndrr\r\n    /// @return charityAddresses\r\n    function getAddresses() public view returns (address payable[] memory) {\r\n        return charityAddresses;\r\n    }\r\n\r\n    function getAddress() public view returns(Organization memory){ //Kaldrlabilir\r\n        return charityAddressInfos[msg.sender];\r\n    }\r\n\r\n    \r\n    function getAddressInfos(address payable charityAddress) public view returns (address payable, string memory, OrganizationType[] memory, bool)\r\n    {\r\n        return (charityAddress, charityAddressInfos[charityAddress].organizationName, charityAddressInfos[charityAddress].organizationTypes, charityAddressInfos[charityAddress].isValidated);\r\n    }\r\n      \r\n\r\n    //Contract' deploylayan adresin dorulanmas iin\r\n    modifier restrictToOwner() {\r\n        require(msg.sender == owner, 'Method available only to the to the user that deployed the contract');\r\n        _;\r\n    }\r\n\r\n    //Organizasyon czdanlarn dorulayacak adreslerin yetkili olup olmadn kontrol eder\r\n    modifier isManager(){\r\n        require(isManagerAddress[msg.sender] || msg.sender == owner,'The Address is not authorized manager address');\r\n        _;\r\n    }\r\n\r\n    modifier CheckNewCharityAddress(address payable newAddress){\r\n        bool addresNotFound = true;\r\n        for(uint i=0 ; i < charityAddresses.length; i++){\r\n            if(charityAddresses[i] == newAddress){\r\n                addresNotFound = false;\r\n            }\r\n        }\r\n        require(addresNotFound, 'The address added to the contract before!');\r\n        _;\r\n    }\r\n\r\n    //Ba yaplacak adres daha nce contract'a kaydedildi mi?\r\n    modifier checkCharityAddress(address payable destinationAddress) {\r\n        require(charityAddresses.length > 0, 'Currently there are no addresses in the contract');\r\n        bool addresFound = false;\r\n        for(uint i=0 ; i < charityAddresses.length; i++){\r\n            if(charityAddresses[i] == destinationAddress){\r\n                addresFound = true;\r\n            }\r\n        }\r\n        require(addresFound, 'Destination addres did not found in the contract');\r\n        _;\r\n    }\r\n\r\n    //Ba yaplacak adres daha nce contract'a kaydedildi mi?\r\n    modifier checkOtherCharityAddresses(address payable[] memory otherDestinationAddresses) {\r\n        bool addresFound = false;\r\n        for(uint i=0 ; i < charityAddresses.length; i++){\r\n            for(uint j=0; j < otherDestinationAddresses.length; j++)\r\n                if(charityAddresses[i] == otherDestinationAddresses[j]){\r\n                    addresFound = true;\r\n                }\r\n        }\r\n        require(addresFound, 'Destination addres did not found in the contract');\r\n        _;\r\n    }\r\n\r\n\r\n    //Ba yapan kii kendi adresine ba yapamaz\r\n    modifier validateDestination(address payable destinationAddress) {\r\n        require(msg.sender != destinationAddress, 'Sender and recipient cannot be the same.');\r\n        _;\r\n    }\r\n\r\n    //// Validates that the charity index number provided is a valid one.\r\n    ///\r\n    /// @param charityIndex The target charity index to validate. Indexes start from 0 and increment by 1.\r\n    modifier validateCharity(uint256 charityIndex) {\r\n        require(charityIndex <= charityAddresses.length - 1, 'Invalid charity index.');\r\n        _;\r\n    }\r\n    \r\n    /// Validates that the amount to transfer is not zero.\r\n    modifier validateTransferAmount() {\r\n        require(msg.value > 0, 'Transfer amount has to be greater than 0.');\r\n        _;\r\n    }\r\n\r\n     /// Validates that the donated amount is within acceptable limits.\r\n    ///\r\n    /// @param donationAmount The target donation amount.\r\n    /// @dev donated amount >= 1% of the total transferred amount and <= 50% of the total transferred amount.\r\n    modifier validateDonationAmount(uint256 donationAmount) {\r\n        require(donationAmount >= msg.value / 100 && donationAmount <= msg.value / 2,\r\n            'Donation amount has to be from 1% to 50% of the total transferred amount');\r\n        _;\r\n    }\r\n\r\n    modifier validateDonationPercentage(uint256 mainPercentage) {\r\n        require(mainPercentage > 0 && mainPercentage <= 100,\r\n            'Main percentage must between 0 to 100');\r\n        _;\r\n    }\r\n\r\n    /// Parametre ile gelen yzdeyi ana adrese aktarr, \r\n    /// yzdenin geri kalanndaki miktar ise dier parametre ile gelen dier adresler arasnda bltrr\r\n    ///\r\n    /// @param destinationAddress Ana adres\r\n    /// @param otherAddresses Dier adresler\r\n    /// @param mainPercentage Ana adrese aktarlacak yzde\r\n    function deposit(address payable destinationAddress, address payable[] memory otherAddresses, uint256 mainPercentage) public \r\n    validateDestination(destinationAddress)\r\n    validateTransferAmount() \r\n    checkCharityAddress(destinationAddress) \r\n    checkOtherCharityAddresses(otherAddresses) \r\n    validateDonationPercentage(mainPercentage)  \r\n    payable {\r\n\r\n\r\n        uint256 donationAmount = (msg.value * mainPercentage) / 100 ;\r\n        uint256 actualDeposit = msg.value - donationAmount;\r\n        uint256 otherAddressAmount = actualDeposit / otherAddresses.length;\r\n\r\n        for(uint i=0; i< otherAddresses.length; i++){\r\n            otherAddresses[i].transfer(otherAddressAmount);\r\n        } \r\n        destinationAddress.transfer(donationAmount);\r\n\r\n        emit Donation(msg.sender, donationAmount, destinationAddress);\r\n\r\n        totalDonationsAmount += donationAmount;\r\n\r\n        if (donationAmount > highestDonation) {\r\n            highestDonation = donationAmount;\r\n            highestDonor = msg.sender;\r\n        }\r\n    }\r\n\r\n\r\n    /// Ana adrese ba yapar.\r\n    ///\r\n    /// @param destinationAddress Ana adres\r\n    /// @param mainPercentage Ana adrese aktarlacak yzde\r\n    function depositDirect(address payable destinationAddress,  uint256 mainPercentage) \r\n    validateDestination(destinationAddress)\r\n    validateTransferAmount() \r\n    checkCharityAddress(destinationAddress) \r\n    validateDonationPercentage(mainPercentage)  \r\n    external payable {\r\n\r\n\r\n        uint256 donationAmount = msg.value;\r\n\r\n        destinationAddress.transfer(donationAmount);\r\n\r\n        emit Donation(msg.sender, donationAmount, destinationAddress);\r\n\r\n        totalDonationsAmount += donationAmount;\r\n\r\n        if (donationAmount > highestDonation) {\r\n            highestDonation = donationAmount;\r\n            highestDonor = msg.sender;\r\n        }\r\n    }\r\n\r\n    // /// Parametre ile gelen yzdeyi ana adrese aktarr, \r\n    // /// yzdenin geri kalanndaki miktar ise parametre olarak gelen organizasyon tipindeki dier adreslere datr, SADECE dorulanm adreslere datr.\r\n    // ///\r\n    // /// @param destinationAddress Ana adres\r\n    // /// @param mainPercentage Ana adrese aktarlacak yzde\r\n    // /// @param organizationType Ban geri kalannn datm yaplacak organizasyon tipi\r\n    // function deposit(address payable destinationAddress, uint256 mainPercentage, OrganizationType organizationType) public \r\n    // validateDestination(destinationAddress)\r\n    // validateTransferAmount() \r\n    // checkCharityAddress(destinationAddress) \r\n    // validateDonationPercentage(mainPercentage)  \r\n    // payable {\r\n\r\n\r\n    //     uint256 donationAmount = (msg.value * mainPercentage) / 100 ;\r\n    //     uint256 actualDeposit = msg.value - donationAmount;\r\n\r\n    //     uint count = 0;\r\n    //     address payable[] memory tempArray;\r\n\r\n    //     for (uint i=0; i < charityAddresses.length; i++){\r\n    //         if(charityAddressInfos[charityAddresses[i]].organizationTypes[0] == organizationType \r\n    //         && isValidated[charityAddresses[i]]== true \r\n    //         && charityAddresses[i] != destinationAddress){\r\n    //             count++;\r\n    //             tempArray.push(charityAddresses[i]);\r\n    //         }\r\n    //     }\r\n\r\n    //     if(count > 0){\r\n    //         uint256 validatedAddressAmount = actualDeposit / count;\r\n\r\n    //         for(uint i=0; i< tempArray.length; i++){\r\n    //             tempArray[i].transfer(validatedAddressAmount);\r\n    //         } \r\n    //     }\r\n        \r\n    //     destinationAddress.transfer(donationAmount);\r\n\r\n    //     emit Donation(msg.sender, donationAmount, destinationAddress);\r\n\r\n    //     totalDonationsAmount += donationAmount;\r\n\r\n    //     if (donationAmount > highestDonation) {\r\n    //         highestDonation = donationAmount;\r\n    //         highestDonor = msg.sender;\r\n    //     }\r\n    // }\r\n\r\n    function validateCharityAddress(address payable validatingAddress)\r\n    isManager()\r\n    checkCharityAddress(validatingAddress) \r\n    public {\r\n        charityAddressInfos[validatingAddress].isValidated = true;\r\n        emit AddressValidation(msg.sender, validatingAddress);\r\n    }\r\n\r\n    function addManagerAddress(address managerAddress)\r\n    restrictToOwner()\r\n    isManager()\r\n    public {\r\n        isManagerAddress[managerAddress] = true;\r\n        emit AddManager(managerAddress);\r\n    }\r\n\r\n    /// Returns the total amount raised by all donations (in wei) towards any charity.\r\n    /// @return totalDonationsAmount\r\n    function getTotalDonationsAmount() public view returns (uint256) {\r\n        return totalDonationsAmount;\r\n    }\r\n\r\n    /// En yksek ba ve ba yapan dndrr\r\n    /// @return (highestDonation, highestDonor)\r\n    function getHighestDonation() public view restrictToOwner() returns (uint256, address payable)  {\r\n        return (highestDonation, payable(highestDonor));\r\n    }\r\n\r\n\r\n    // Contract' bir daha kullanlmamak zere blockchainden kaldrr\r\n    function destroy() public restrictToOwner() {\r\n        selfdestruct(payable(owner));\r\n    }\r\n}\r\n",
  "sourcePath": "C:\\Users\\alioz\\Documents\\ContractTests\\contracts\\Bagis.sol",
  "compiler": {
    "name": "solc",
    "version": "0.8.13+commit.abaa5c0e.Emscripten.clang"
  },
  "schemaVersion": "3.4.6",
  "updatedAt": "2023-01-10T19:49:14.264Z",
  "devdoc": {
    "kind": "dev",
    "methods": {
      "deposit(address,address[],uint256)": {
        "params": {
          "destinationAddress": "Ana adres",
          "mainPercentage": "Ana adrese aktarlacak yzde",
          "otherAddresses": "Dier adresler"
        }
      },
      "depositDirect(address,uint256)": {
        "params": {
          "destinationAddress": "Ana adres",
          "mainPercentage": "Ana adrese aktarlacak yzde"
        }
      },
      "getAddresses()": {
        "returns": {
          "_0": "charityAddresses"
        }
      },
      "getHighestDonation()": {
        "returns": {
          "_0": "(highestDonation, highestDonor)"
        }
      },
      "getTotalDonationsAmount()": {
        "returns": {
          "_0": "totalDonationsAmount"
        }
      }
    },
    "version": 1
  },
  "userdoc": {
    "events": {
      "Donation(address,uint256,address)": {
        "notice": "Ba yapan adresi ve ba miktarn blockchain'de kaydeder"
      }
    },
    "kind": "user",
    "methods": {
      "deposit(address,address[],uint256)": {
        "notice": "Parametre ile gelen yzdeyi ana adrese aktarr,  yzdenin geri kalanndaki miktar ise dier parametre ile gelen dier adresler arasnda bltrr"
      },
      "depositDirect(address,uint256)": {
        "notice": "Ana adrese ba yapar."
      },
      "getAddresses()": {
        "notice": "Btn ba adreslerini dndrr"
      },
      "getHighestDonation()": {
        "notice": "En yksek ba ve ba yapan dndrr"
      },
      "getTotalDonationsAmount()": {
        "notice": "Returns the total amount raised by all donations (in wei) towards any charity."
      }
    },
    "version": 1
  }
}